{
  "contractName": "HotelBooking",
  "abi": [
    {
      "inputs": [],
      "stateMutability": "nonpayable",
      "type": "constructor"
    },
    {
      "inputs": [],
      "name": "owner",
      "outputs": [
        {
          "internalType": "address payable",
          "name": "",
          "type": "address"
        }
      ],
      "stateMutability": "view",
      "type": "function",
      "constant": true
    },
    {
      "inputs": [
        {
          "internalType": "enum HotelBooking.RoomType",
          "name": "",
          "type": "uint8"
        },
        {
          "internalType": "uint256",
          "name": "",
          "type": "uint256"
        }
      ],
      "name": "rooms",
      "outputs": [
        {
          "internalType": "uint256",
          "name": "basePrice",
          "type": "uint256"
        },
        {
          "internalType": "bool",
          "name": "isBooked",
          "type": "bool"
        },
        {
          "internalType": "address",
          "name": "booker",
          "type": "address"
        },
        {
          "internalType": "uint256",
          "name": "startDate",
          "type": "uint256"
        },
        {
          "internalType": "uint256",
          "name": "endDate",
          "type": "uint256"
        }
      ],
      "stateMutability": "view",
      "type": "function",
      "constant": true
    },
    {
      "inputs": [
        {
          "internalType": "enum HotelBooking.RoomType",
          "name": "roomType",
          "type": "uint8"
        },
        {
          "internalType": "uint256",
          "name": "_newPrice",
          "type": "uint256"
        }
      ],
      "name": "setRoomPrice",
      "outputs": [],
      "stateMutability": "nonpayable",
      "type": "function"
    },
    {
      "inputs": [
        {
          "internalType": "enum HotelBooking.RoomType",
          "name": "roomType",
          "type": "uint8"
        },
        {
          "internalType": "uint256",
          "name": "numDays",
          "type": "uint256"
        },
        {
          "internalType": "bool",
          "name": "applyDiscount",
          "type": "bool"
        }
      ],
      "name": "calculatePrice",
      "outputs": [
        {
          "internalType": "uint256",
          "name": "",
          "type": "uint256"
        }
      ],
      "stateMutability": "view",
      "type": "function",
      "constant": true
    },
    {
      "inputs": [
        {
          "internalType": "enum HotelBooking.RoomType",
          "name": "roomType",
          "type": "uint8"
        },
        {
          "internalType": "uint256",
          "name": "startDate",
          "type": "uint256"
        },
        {
          "internalType": "uint256",
          "name": "endDate",
          "type": "uint256"
        },
        {
          "internalType": "bool",
          "name": "applyDiscount",
          "type": "bool"
        }
      ],
      "name": "bookRoom",
      "outputs": [],
      "stateMutability": "payable",
      "type": "function",
      "payable": true
    },
    {
      "inputs": [
        {
          "internalType": "enum HotelBooking.RoomType",
          "name": "roomType",
          "type": "uint8"
        },
        {
          "internalType": "uint256",
          "name": "startDate",
          "type": "uint256"
        },
        {
          "internalType": "uint256",
          "name": "endDate",
          "type": "uint256"
        }
      ],
      "name": "checkAvailability",
      "outputs": [
        {
          "internalType": "bool",
          "name": "",
          "type": "bool"
        }
      ],
      "stateMutability": "view",
      "type": "function",
      "constant": true
    },
    {
      "inputs": [
        {
          "internalType": "enum HotelBooking.RoomType",
          "name": "roomType",
          "type": "uint8"
        },
        {
          "internalType": "uint256",
          "name": "startDate",
          "type": "uint256"
        },
        {
          "internalType": "uint256",
          "name": "endDate",
          "type": "uint256"
        }
      ],
      "name": "cancelBooking",
      "outputs": [],
      "stateMutability": "nonpayable",
      "type": "function"
    },
    {
      "inputs": [],
      "name": "withdrawFunds",
      "outputs": [],
      "stateMutability": "nonpayable",
      "type": "function"
    }
  ],
  "bytecode": "0x608060405234801561001057600080fd5b5060008054336001600160a01b031990911617815566b1a2bc2ec500007fe5d06582d467054dda5404b9e1ec93f72b608a4970ba970773776c69ca5664f7819055668e1bc9bf0400007f09d41a60c7eb9e1f3f38bbee2eea2761087cd398a4df0eb22dbaa4eaa274957c55667c5850872380007fdbf00e7ae1b41a7f88200c81b3488ab68158ddd50fc472b3c3e2284a7349346d55666a94d74f4300007f8272f7cf5ae04aea784b78e9bad38625f1cf45c192335b7c7e0361d2c3c2bfbf556658d15e176280007fbfa81affed6853fa858c1c498cce24336ff43d76c76fce7810ddc8526855168255669fdf42f6e480007f300c4deee6c2045698037d555a5410ca471da3b4f6be0d7d4848609f4345faca5566470de4df8200007f04746ede2c42bf636d5bb6a2058d64a0dcf83cac736b264fd1e2b6f73b8b46755566354a6ba7a180007fc974ce76eeb4c656b4e5a35e4efd6e440ac2f851b92a52242414ac4dde28a50e559080527f4db623e5c4870b62d3fc9b4e8f893a1a77627d75ab45d9ff7e56ba19564af99b6020527f1e3d610eabc093afb3fe3c96ef302258cd14afb4414fdf61e7355fe10ca5b7e155610bd8806101cf6000396000f3fe60806040526004361061007b5760003560e01c8063ebc1c7301161004e578063ebc1c73014610196578063ed9505f4146101a9578063f036553d146101c9578063f2a02c1f146101f957600080fd5b806324600fc3146100805780638da5cb5b14610097578063a96b7435146100d4578063b83dccd914610168575b600080fd5b34801561008c57600080fd5b50610095610219565b005b3480156100a357600080fd5b506000546100b7906001600160a01b031681565b6040516001600160a01b0390911681526020015b60405180910390f35b3480156100e057600080fd5b506101326100ef3660046109d1565b60016020818152600093845260408085209091529183529120805491810154600282015460039092015460ff8216926101009092046001600160a01b0316919085565b6040805195865293151560208601526001600160a01b03909216928401929092526060830191909152608082015260a0016100cb565b34801561017457600080fd5b50610188610183366004610a0b565b610289565b6040519081526020016100cb565b6100956101a4366004610a47565b610316565b3480156101b557600080fd5b506100956101c4366004610a8d565b6105e9565b3480156101d557600080fd5b506101e96101e4366004610a8d565b6108c5565b60405190151581526020016100cb565b34801561020557600080fd5b506100956102143660046109d1565b610949565b6000546001600160a01b0316331461024c5760405162461bcd60e51b815260040161024390610ac0565b60405180910390fd5b600080546040516001600160a01b03909116914780156108fc02929091818181858888f19350505050158015610286573d6000803e3d6000fd5b50565b60008061029d84662386f26fc10000610b1c565b600160008760088111156102b3576102b3610b3b565b60088111156102c4576102c4610b3b565b81526020019081526020016000206000808152602001908152602001600020600001546102f19190610b51565b9050821561030c57610304600282610b69565b91505061030f565b90505b9392505050565b6000620151806103268585610b8b565b6103309190610b69565b61033b906001610b51565b9050600061034a868385610289565b905080341461039b5760405162461bcd60e51b815260206004820152601c60248201527f496e636f727265637420616d6f756e74206f66204554482073656e74000000006044820152606401610243565b845b84811161045c57600160008860088111156103ba576103ba610b3b565b60088111156103cb576103cb610b3b565b81526020808201929092526040908101600090812084825290925290206001015460ff16156104485760405162461bcd60e51b8152602060048201526024808201527f4f6e65206f72206d6f72652064617465732061726520616c726561647920626f6044820152631bdad95960e21b6064820152608401610243565b6104556201518082610b51565b905061039d565b50845b8481116105e057600180600089600881111561047d5761047d610b3b565b600881111561048e5761048e610b3b565b8152602001908152602001600020600083815260200190815260200160002060010160006101000a81548160ff02191690831515021790555033600160008960088111156104de576104de610b3b565b60088111156104ef576104ef610b3b565b8152602001908152602001600020600083815260200190815260200160002060010160016101000a8154816001600160a01b0302191690836001600160a01b03160217905550856001600089600881111561054c5761054c610b3b565b600881111561055d5761055d610b3b565b8152602001908152602001600020600083815260200190815260200160002060020181905550846001600089600881111561059a5761059a610b3b565b60088111156105ab576105ab610b3b565b8152602080820192909252604090810160009081208582529092529020600301556105d96201518082610b51565b905061045f565b50505050505050565b815b8181116108bf576001600085600881111561060857610608610b3b565b600881111561061957610619610b3b565b81526020808201929092526040908101600090812084825290925290206001015461010090046001600160a01b031633146106aa5760405162461bcd60e51b815260206004820152602b60248201527f4f6e6c792074686520626f6f6b65722063616e2063616e63656c20746869732060448201526a3932b9b2b93b30ba34b7b760a91b6064820152608401610243565b600160008560088111156106c0576106c0610b3b565b60088111156106d1576106d1610b3b565b81526020808201929092526040908101600090812084825290925290206001015460ff166107415760405162461bcd60e51b815260206004820152601760248201527f546869732064617465206973206e6f7420626f6f6b65640000000000000000006044820152606401610243565b60006001600086600881111561075957610759610b3b565b600881111561076a5761076a610b3b565b8152602001908152602001600020600083815260200190815260200160002060010160006101000a81548160ff0219169083151502179055506000600160008660088111156107bb576107bb610b3b565b60088111156107cc576107cc610b3b565b8152602001908152602001600020600083815260200190815260200160002060010160016101000a8154816001600160a01b0302191690836001600160a01b0316021790555060006001600086600881111561082a5761082a610b3b565b600881111561083b5761083b610b3b565b815260200190815260200160002060008381526020019081526020016000206002018190555060006001600086600881111561087957610879610b3b565b600881111561088a5761088a610b3b565b8152602080820192909252604090810160009081208582529092529020600301556108b86201518082610b51565b90506105eb565b50505050565b6000825b82811161093e57600160008660088111156108e6576108e6610b3b565b60088111156108f7576108f7610b3b565b81526020808201929092526040908101600090812084825290925290206001015460ff161561092a57600091505061030f565b6109376201518082610b51565b90506108c9565b506001949350505050565b6000546001600160a01b031633146109735760405162461bcd60e51b815260040161024390610ac0565b806001600084600881111561098a5761098a610b3b565b600881111561099b5761099b610b3b565b8152602080820192909252604090810160009081208180529092529020555050565b8035600981106109cc57600080fd5b919050565b600080604083850312156109e457600080fd5b6109ed836109bd565b946020939093013593505050565b803580151581146109cc57600080fd5b600080600060608486031215610a2057600080fd5b610a29846109bd565b925060208401359150610a3e604085016109fb565b90509250925092565b60008060008060808587031215610a5d57600080fd5b610a66856109bd565b93506020850135925060408501359150610a82606086016109fb565b905092959194509250565b600080600060608486031215610aa257600080fd5b610aab846109bd565b95602085013595506040909401359392505050565b60208082526026908201527f4f6e6c7920746865206f776e65722063616e20706572666f726d20746869732060408201526530b1ba34b7b760d11b606082015260800190565b634e487b7160e01b600052601160045260246000fd5b6000816000190483118215151615610b3657610b36610b06565b500290565b634e487b7160e01b600052602160045260246000fd5b60008219821115610b6457610b64610b06565b500190565b600082610b8657634e487b7160e01b600052601260045260246000fd5b500490565b600082821015610b9d57610b9d610b06565b50039056fea26469706673582212203c16765d6ee6e8ea7cbd0a4c830d076fab7e881aed0831ea90d4d0670c364e0364736f6c634300080d0033",
  "immutableReferences": {},
  "source": "// SPDX-License-Identifier: MIT\r\npragma solidity ^0.8.13;\r\n\r\ncontract HotelBooking {\r\n    address payable public owner;\r\n    \r\n    enum RoomType { SuitePresidencial, HabitacionEjecutiva, SuiteJardin, HabitacionDobleDeluxe, HabitacionRomantica, SuitePanoramica, HabitacionEstandar, HabitacionLoft, SuiteBienestar }\r\n    \r\n    struct Room {\r\n        uint basePrice;\r\n        bool isBooked;\r\n        address booker;\r\n        uint startDate;\r\n        uint endDate;\r\n    }\r\n    \r\n    mapping(RoomType => mapping(uint => Room)) public rooms;\r\n    \r\n    constructor() {\r\n        owner = payable(msg.sender);\r\n        // Inicializar precios base\r\n        rooms[RoomType.SuitePresidencial][0].basePrice = 0.05 ether;\r\n        rooms[RoomType.HabitacionEjecutiva][0].basePrice = 0.04 ether;\r\n        rooms[RoomType.SuiteJardin][0].basePrice = 0.035 ether;\r\n        rooms[RoomType.HabitacionDobleDeluxe][0].basePrice = 0.03 ether;\r\n        rooms[RoomType.HabitacionRomantica][0].basePrice = 0.025 ether;\r\n        rooms[RoomType.SuitePanoramica][0].basePrice = 0.045 ether;\r\n        rooms[RoomType.HabitacionEstandar][0].basePrice = 0.02 ether;\r\n        rooms[RoomType.HabitacionLoft][0].basePrice = 0.015 ether;\r\n        rooms[RoomType.SuiteBienestar][0].basePrice = 0.05 ether;\r\n    }\r\n    \r\n    modifier onlyOwner() {\r\n        require(msg.sender == owner, \"Only the owner can perform this action\");\r\n        _;\r\n    }\r\n    \r\n    function setRoomPrice(RoomType roomType, uint _newPrice) public onlyOwner {\r\n        rooms[roomType][0].basePrice = _newPrice;\r\n    }\r\n    \r\n    function calculatePrice(RoomType roomType, uint numDays, bool applyDiscount) public view returns (uint) {\r\n        uint price = rooms[roomType][0].basePrice + (numDays * 0.01 ether);\r\n        if (applyDiscount) {\r\n            return price / 2;\r\n        }\r\n        return price;\r\n    }\r\n\r\n    function bookRoom(RoomType roomType, uint startDate, uint endDate, bool applyDiscount) public payable {\r\n        uint numDays = (endDate - startDate) / 1 days + 1;\r\n        uint totalPrice = calculatePrice(roomType, numDays, applyDiscount);\r\n        require(msg.value == totalPrice, \"Incorrect amount of ETH sent\");\r\n\r\n        for (uint date = startDate; date <= endDate; date += 1 days) {\r\n            require(!rooms[roomType][date].isBooked, \"One or more dates are already booked\");\r\n        }\r\n\r\n        for (uint date = startDate; date <= endDate; date += 1 days) {\r\n            rooms[roomType][date].isBooked = true;\r\n            rooms[roomType][date].booker = msg.sender;\r\n            rooms[roomType][date].startDate = startDate;\r\n            rooms[roomType][date].endDate = endDate;\r\n        }\r\n    }\r\n    \r\n    function checkAvailability(RoomType roomType, uint startDate, uint endDate) public view returns (bool) {\r\n        for (uint date = startDate; date <= endDate; date += 1 days) {\r\n            if (rooms[roomType][date].isBooked) {\r\n                return false;\r\n            }\r\n        }\r\n        return true;\r\n    }\r\n    \r\n    function cancelBooking(RoomType roomType, uint startDate, uint endDate) public {\r\n        for (uint date = startDate; date <= endDate; date += 1 days) {\r\n            require(msg.sender == rooms[roomType][date].booker, \"Only the booker can cancel this reservation\");\r\n            require(rooms[roomType][date].isBooked, \"This date is not booked\");\r\n            rooms[roomType][date].isBooked = false;\r\n            rooms[roomType][date].booker = address(0);\r\n            rooms[roomType][date].startDate = 0;\r\n            rooms[roomType][date].endDate = 0;\r\n        }\r\n    }\r\n    \r\n    function withdrawFunds() public onlyOwner {\r\n        owner.transfer(address(this).balance);\r\n    }\r\n}\r\n",
  "sourcePath": "C:\\Users\\Mario\\Desktop\\U-Semestres\\ether_hotel\\repo\\ether_hotel\\contracts\\Hotel.sol",
  "compiler": {
    "name": "solc",
    "version": "0.8.13+commit.abaa5c0e.Emscripten.clang"
  },
  "schemaVersion": "3.4.16",
  "updatedAt": "2024-07-10T20:11:28.000Z",
  "networkType": "ethereum",
  "devdoc": {
    "kind": "dev",
    "methods": {},
    "version": 1
  },
  "userdoc": {
    "kind": "user",
    "methods": {},
    "version": 1
  }
}