{
  "contractName": "HotelBooking",
  "abi": [
    {
      "inputs": [],
      "stateMutability": "nonpayable",
      "type": "constructor"
    },
    {
      "inputs": [
        {
          "internalType": "uint256",
          "name": "",
          "type": "uint256"
        }
      ],
      "name": "booked_dates",
      "outputs": [
        {
          "internalType": "bool",
          "name": "",
          "type": "bool"
        }
      ],
      "stateMutability": "view",
      "type": "function",
      "constant": true
    },
    {
      "inputs": [
        {
          "internalType": "uint256",
          "name": "",
          "type": "uint256"
        }
      ],
      "name": "booker",
      "outputs": [
        {
          "internalType": "address",
          "name": "",
          "type": "address"
        }
      ],
      "stateMutability": "view",
      "type": "function",
      "constant": true
    },
    {
      "inputs": [],
      "name": "owner",
      "outputs": [
        {
          "internalType": "address payable",
          "name": "",
          "type": "address"
        }
      ],
      "stateMutability": "view",
      "type": "function",
      "constant": true
    },
    {
      "inputs": [],
      "name": "get_room_price",
      "outputs": [
        {
          "internalType": "uint256",
          "name": "",
          "type": "uint256"
        }
      ],
      "stateMutability": "view",
      "type": "function",
      "constant": true
    },
    {
      "inputs": [
        {
          "internalType": "uint256",
          "name": "_newPrice",
          "type": "uint256"
        }
      ],
      "name": "setroom_price",
      "outputs": [],
      "stateMutability": "nonpayable",
      "type": "function"
    },
    {
      "inputs": [
        {
          "internalType": "uint256",
          "name": "_date",
          "type": "uint256"
        }
      ],
      "name": "bookRoom",
      "outputs": [],
      "stateMutability": "payable",
      "type": "function",
      "payable": true
    },
    {
      "inputs": [
        {
          "internalType": "uint256",
          "name": "_date",
          "type": "uint256"
        }
      ],
      "name": "checkAvailability",
      "outputs": [
        {
          "internalType": "bool",
          "name": "",
          "type": "bool"
        }
      ],
      "stateMutability": "view",
      "type": "function",
      "constant": true
    },
    {
      "inputs": [
        {
          "internalType": "uint256",
          "name": "_date",
          "type": "uint256"
        }
      ],
      "name": "cancelBooking",
      "outputs": [],
      "stateMutability": "nonpayable",
      "type": "function"
    },
    {
      "inputs": [],
      "name": "withdrawFunds",
      "outputs": [],
      "stateMutability": "nonpayable",
      "type": "function"
    }
  ],
  "bytecode": "0x6080604052662386f26fc1000060015534801561001b57600080fd5b50600080546001600160a01b031916331790556105288061003d6000396000f3fe6080604052600436106100865760003560e01c806361986d4d1161005957806361986d4d146100f55780636a6c738e14610118578063753999ef146101585780638da5cb5b14610189578063fb6c794f146101c157600080fd5b80630d60c0951461008b5780630dca825e146100ad57806324600fc3146100cd5780635f49d3d8146100e2575b600080fd5b34801561009757600080fd5b506100ab6100a6366004610493565b6101f7565b005b3480156100b957600080fd5b506100ab6100c8366004610493565b61022f565b3480156100d957600080fd5b506100ab610337565b6100ab6100f0366004610493565b61039e565b34801561010157600080fd5b506001546040519081526020015b60405180910390f35b34801561012457600080fd5b50610148610133366004610493565b60026020526000908152604090205460ff1681565b604051901515815260200161010f565b34801561016457600080fd5b50610148610173366004610493565b60009081526002602052604090205460ff161590565b34801561019557600080fd5b506000546101a9906001600160a01b031681565b6040516001600160a01b03909116815260200161010f565b3480156101cd57600080fd5b506101a96101dc366004610493565b6003602052600090815260409020546001600160a01b031681565b6000546001600160a01b0316331461022a5760405162461bcd60e51b8152600401610221906104ac565b60405180910390fd5b600155565b6000818152600360205260409020546001600160a01b031633146102a95760405162461bcd60e51b815260206004820152602b60248201527f4f6e6c792074686520626f6f6b65722063616e2063616e63656c20746869732060448201526a3932b9b2b93b30ba34b7b760a91b6064820152608401610221565b60008181526002602052604090205460ff166103075760405162461bcd60e51b815260206004820152601760248201527f546869732064617465206973206e6f7420626f6f6b65640000000000000000006044820152606401610221565b6000908152600260209081526040808320805460ff191690556003909152902080546001600160a01b0319169055565b6000546001600160a01b031633146103615760405162461bcd60e51b8152600401610221906104ac565b600080546040516001600160a01b03909116914780156108fc02929091818181858888f1935050505015801561039b573d6000803e3d6000fd5b50565b60015434146103ff5760405162461bcd60e51b815260206004820152602760248201527f506c65617365207375626d69742074686520636f727265637420616d6f756e74604482015266040decc408aa8960cb1b6064820152608401610221565b60008181526002602052604090205460ff161561045e5760405162461bcd60e51b815260206004820152601b60248201527f54686973206461746520697320616c726561647920626f6f6b656400000000006044820152606401610221565b6000908152600260209081526040808320805460ff191660011790556003909152902080546001600160a01b03191633179055565b6000602082840312156104a557600080fd5b5035919050565b60208082526026908201527f4f6e6c7920746865206f776e65722063616e20706572666f726d20746869732060408201526530b1ba34b7b760d11b60608201526080019056fea264697066735822122035cefbe6d78bac125c73e3ee2735e75d9a9a04cb50e0c17573f7534512c22f3e64736f6c634300080d0033",
  "immutableReferences": {},
  "source": "// SPDX-License-Identifier: MIT\r\npragma solidity ^0.8.13;\r\n\r\ncontract HotelBooking {\r\n    address payable public owner;\r\n    uint private room_price = 0.01 ether;\r\n    mapping(uint => bool) public booked_dates;\r\n    mapping(uint => address) public booker;\r\n\r\n\r\n    constructor() {\r\n        owner = payable(msg.sender); \r\n    }\r\n\r\n    modifier onlyOwner() {\r\n        require(msg.sender == owner, \"Only the owner can perform this action\");\r\n        _;\r\n    }\r\n\r\n    function get_room_price() public view returns(uint){\r\n        return room_price;\r\n    }\r\n\r\n    function setroom_price(uint _newPrice) public onlyOwner {\r\n        room_price = _newPrice;\r\n    }\r\n\r\n   function bookRoom(uint _date) public payable {\r\n    require(msg.value == room_price, \"Please submit the correct amount of ETH\");\r\n    require(!booked_dates[_date], \"This date is already booked\");\r\n    booked_dates[_date] = true;\r\n    booker[_date] = msg.sender; \r\n        }\r\n\r\n\r\n    function checkAvailability(uint _date) public view returns(bool) {\r\n        return !booked_dates[_date];\r\n    }\r\n\r\n    function cancelBooking(uint _date) public {\r\n    require(msg.sender == booker[_date], \"Only the booker can cancel this reservation\");\r\n    require(booked_dates[_date], \"This date is not booked\");\r\n    booked_dates[_date] = false;\r\n    booker[_date] = address(0); \r\n        }\r\n\r\n\r\n    function withdrawFunds() public onlyOwner {\r\n        owner.transfer(address(this).balance);\r\n    }\r\n}",
  "sourcePath": "C:\\Users\\Mario\\Desktop\\U-Semestres\\ether_hotel\\hotel_app\\hotel_app\\hotel_ether_app\\contracts\\Hotel.sol",
  "compiler": {
    "name": "solc",
    "version": "0.8.13+commit.abaa5c0e.Emscripten.clang"
  },
  "schemaVersion": "3.4.16",
  "updatedAt": "2024-06-05T03:33:10.873Z",
  "networkType": "ethereum",
  "devdoc": {
    "kind": "dev",
    "methods": {},
    "version": 1
  },
  "userdoc": {
    "kind": "user",
    "methods": {},
    "version": 1
  }
}