{
  "contractName": "HotelBooking",
  "abi": [
    {
      "inputs": [],
      "stateMutability": "nonpayable",
      "type": "constructor"
    },
    {
      "inputs": [
        {
          "internalType": "uint256",
          "name": "",
          "type": "uint256"
        }
      ],
      "name": "booked_dates",
      "outputs": [
        {
          "internalType": "bool",
          "name": "",
          "type": "bool"
        }
      ],
      "stateMutability": "view",
      "type": "function"
    },
    {
      "inputs": [],
      "name": "owner",
      "outputs": [
        {
          "internalType": "address payable",
          "name": "",
          "type": "address"
        }
      ],
      "stateMutability": "view",
      "type": "function"
    },
    {
      "inputs": [],
      "name": "get_room_price",
      "outputs": [
        {
          "internalType": "uint256",
          "name": "",
          "type": "uint256"
        }
      ],
      "stateMutability": "view",
      "type": "function"
    },
    {
      "inputs": [
        {
          "internalType": "uint256",
          "name": "_newPrice",
          "type": "uint256"
        }
      ],
      "name": "setroom_price",
      "outputs": [],
      "stateMutability": "nonpayable",
      "type": "function"
    },
    {
      "inputs": [
        {
          "internalType": "uint256",
          "name": "_date",
          "type": "uint256"
        }
      ],
      "name": "bookRoom",
      "outputs": [],
      "stateMutability": "payable",
      "type": "function"
    },
    {
      "inputs": [
        {
          "internalType": "uint256",
          "name": "_date",
          "type": "uint256"
        }
      ],
      "name": "checkAvailability",
      "outputs": [
        {
          "internalType": "bool",
          "name": "",
          "type": "bool"
        }
      ],
      "stateMutability": "view",
      "type": "function"
    },
    {
      "inputs": [
        {
          "internalType": "uint256",
          "name": "_date",
          "type": "uint256"
        }
      ],
      "name": "cancelBooking",
      "outputs": [],
      "stateMutability": "nonpayable",
      "type": "function"
    },
    {
      "inputs": [],
      "name": "withdrawFunds",
      "outputs": [],
      "stateMutability": "nonpayable",
      "type": "function"
    }
  ],
  "bytecode": "0x6080604052633b9aca006001553480156016575f80fd5b50335f806101000a81548173ffffffffffffffffffffffffffffffffffffffff021916908373ffffffffffffffffffffffffffffffffffffffff1602179055506108ef806100635f395ff3fe60806040526004361061007a575f3560e01c806361986d4d1161004d57806361986d4d146101005780636a6c738e1461012a578063753999ef146101665780638da5cb5b146101a25761007a565b80630d60c0951461007e5780630dca825e146100a657806324600fc3146100ce5780635f49d3d8146100e4575b5f80fd5b348015610089575f80fd5b506100a4600480360381019061009f91906105df565b6101cc565b005b3480156100b1575f80fd5b506100cc60048036038101906100c791906105df565b610263565b005b3480156100d9575f80fd5b506100e2610378565b005b6100fe60048036038101906100f991906105df565b61046a565b005b34801561010b575f80fd5b50610114610538565b6040516101219190610619565b60405180910390f35b348015610135575f80fd5b50610150600480360381019061014b91906105df565b610541565b60405161015d919061064c565b60405180910390f35b348015610171575f80fd5b5061018c600480360381019061018791906105df565b61055e565b604051610199919061064c565b60405180910390f35b3480156101ad575f80fd5b506101b6610585565b6040516101c391906106a4565b60405180910390f35b5f8054906101000a900473ffffffffffffffffffffffffffffffffffffffff1673ffffffffffffffffffffffffffffffffffffffff163373ffffffffffffffffffffffffffffffffffffffff1614610259576040517f08c379a00000000000000000000000000000000000000000000000000000000081526004016102509061073d565b60405180910390fd5b8060018190555050565b5f8054906101000a900473ffffffffffffffffffffffffffffffffffffffff1673ffffffffffffffffffffffffffffffffffffffff163373ffffffffffffffffffffffffffffffffffffffff16146102f0576040517f08c379a00000000000000000000000000000000000000000000000000000000081526004016102e79061073d565b60405180910390fd5b60025f8281526020019081526020015f205f9054906101000a900460ff1661034d576040517f08c379a0000000000000000000000000000000000000000000000000000000008152600401610344906107a5565b60405180910390fd5b5f60025f8381526020019081526020015f205f6101000a81548160ff02191690831515021790555050565b5f8054906101000a900473ffffffffffffffffffffffffffffffffffffffff1673ffffffffffffffffffffffffffffffffffffffff163373ffffffffffffffffffffffffffffffffffffffff1614610405576040517f08c379a00000000000000000000000000000000000000000000000000000000081526004016103fc9061073d565b60405180910390fd5b5f8054906101000a900473ffffffffffffffffffffffffffffffffffffffff1673ffffffffffffffffffffffffffffffffffffffff166108fc4790811502906040515f60405180830381858888f19350505050158015610467573d5f803e3d5ffd5b50565b60015434146104ae576040517f08c379a00000000000000000000000000000000000000000000000000000000081526004016104a590610833565b60405180910390fd5b60025f8281526020019081526020015f205f9054906101000a900460ff161561050c576040517f08c379a00000000000000000000000000000000000000000000000000000000081526004016105039061089b565b60405180910390fd5b600160025f8381526020019081526020015f205f6101000a81548160ff02191690831515021790555050565b5f600154905090565b6002602052805f5260405f205f915054906101000a900460ff1681565b5f60025f8381526020019081526020015f205f9054906101000a900460ff16159050919050565b5f8054906101000a900473ffffffffffffffffffffffffffffffffffffffff1681565b5f80fd5b5f819050919050565b6105be816105ac565b81146105c8575f80fd5b50565b5f813590506105d9816105b5565b92915050565b5f602082840312156105f4576105f36105a8565b5b5f610601848285016105cb565b91505092915050565b610613816105ac565b82525050565b5f60208201905061062c5f83018461060a565b92915050565b5f8115159050919050565b61064681610632565b82525050565b5f60208201905061065f5f83018461063d565b92915050565b5f73ffffffffffffffffffffffffffffffffffffffff82169050919050565b5f61068e82610665565b9050919050565b61069e81610684565b82525050565b5f6020820190506106b75f830184610695565b92915050565b5f82825260208201905092915050565b7f4f6e6c7920746865206f776e65722063616e20706572666f726d2074686973205f8201527f616374696f6e0000000000000000000000000000000000000000000000000000602082015250565b5f6107276026836106bd565b9150610732826106cd565b604082019050919050565b5f6020820190508181035f8301526107548161071b565b9050919050565b7f546869732064617465206973206e6f7420626f6f6b65640000000000000000005f82015250565b5f61078f6017836106bd565b915061079a8261075b565b602082019050919050565b5f6020820190508181035f8301526107bc81610783565b9050919050565b7f506c65617365207375626d69742074686520636f727265637420616d6f756e745f8201527f206f662045544800000000000000000000000000000000000000000000000000602082015250565b5f61081d6027836106bd565b9150610828826107c3565b604082019050919050565b5f6020820190508181035f83015261084a81610811565b9050919050565b7f54686973206461746520697320616c726561647920626f6f6b656400000000005f82015250565b5f610885601b836106bd565b915061089082610851565b602082019050919050565b5f6020820190508181035f8301526108b281610879565b905091905056fea26469706673582212201c42c608bc27f5a2bfa367541ad26ae84e18ce8e042130ecce5b38d45c8beb2164736f6c634300081a0033",
  "immutableReferences": {},
  "source": "// SPDX-License-Identifier: MIT\r\npragma solidity ^0.8.21;\r\n\r\ncontract HotelBooking {\r\n    address payable public owner;\r\n    uint private room_price = 0.000000001 ether;\r\n    mapping(uint => bool) public booked_dates;\r\n\r\n    constructor() {\r\n        owner = payable(msg.sender); \r\n    }\r\n\r\n    modifier onlyOwner() {\r\n        require(msg.sender == owner, \"Only the owner can perform this action\");\r\n        _;\r\n    }\r\n\r\n    function get_room_price() public view returns(uint){\r\n        return room_price;\r\n    }\r\n\r\n    function setroom_price(uint _newPrice) public onlyOwner {\r\n        room_price = _newPrice;\r\n    }\r\n\r\n    function bookRoom(uint _date) public payable {\r\n        require(msg.value == room_price, \"Please submit the correct amount of ETH\");\r\n        require(!booked_dates[_date], \"This date is already booked\");\r\n        booked_dates[_date] = true;\r\n    }\r\n\r\n    function checkAvailability(uint _date) public view returns(bool) {\r\n        return !booked_dates[_date];\r\n    }\r\n\r\n    function cancelBooking(uint _date) public onlyOwner {\r\n        require(booked_dates[_date], \"This date is not booked\");\r\n        booked_dates[_date] = false;\r\n    }\r\n\r\n    function withdrawFunds() public onlyOwner {\r\n        owner.transfer(address(this).balance);\r\n    }\r\n}",
  "sourcePath": "c:\\Users\\Mario\\Desktop\\U-Semestres\\ether_hotel\\ether_hotel\\contracts\\hotel.sol",
  "compiler": {
    "name": "solc",
    "version": "0.8.26+commit.8a97fa7a.Emscripten.clang"
  },
  "schemaVersion": "3.4.16",
  "updatedAt": "2024-05-31T23:51:06.764Z",
  "devdoc": {
    "kind": "dev",
    "methods": {},
    "version": 1
  },
  "userdoc": {
    "kind": "user",
    "methods": {},
    "version": 1
  }
}